:020000040000FA
:100000000C9462000C948A000C948A000C948A0070
:100010000C948A000C948A000C948A000C948A0038
:100020000C948A000C948A000C948A000C948A0028
:100030000C948A000C948A000C948A000C948A0018
:100040000C94F7020C948A000C948A000C948A0099
:100050000C948A000C948A000C948A000C948A00F8
:100060000C948A000C948A000000000024002700F1
:100070002A0000000000250028002B0000000000DE
:1000800023002600290004040404040404040202DA
:100090000202020203030303030301020408102007
:1000A0004080010204081020010204081020000012
:1000B0000008000201000003040700000000000027
:1000C00000002F0411241FBECFEFD8E0DEBFCDBF4C
:1000D00011E0A0E0B1E0EEEEF8E002C005900D9274
:1000E000A432B107D9F721E0A4E2B1E001C01D922A
:1000F000A534B207E1F710E0C2E6D0E004C02197D2
:10010000FE010E946F04C136D107C9F70E94410366
:100110000C9475040C940000AF92BF92CF92DF92C2
:10012000EF92FF920F931F93CF93DF936C017B01AC
:100130008B01040F151FEB015E01AE18BF08C0173D
:10014000D10759F06991D601ED91FC910190F081B0
:10015000E02DC6010995892B79F7C501DF91CF9173
:100160001F910F91FF90EF90DF90CF90BF90AF90D5
:100170000895833081F028F4813099F08230A9F01D
:1001800008958730A9F08830C9F08430B1F48091A7
:1001900080008F7D03C0809180008F7780938000E6
:1001A000089584B58F7784BD089584B58F7DFBCF86
:1001B0008091B0008F778093B00008958091B00057
:1001C0008F7DF9CF1F93CF93DF93282F30E0F90174
:1001D000E255FF4F8491F901E656FF4FD491F901A2
:1001E000EA57FF4FC491CC23A9F0162F81110E942A
:1001F000B900EC2FF0E0EE0FFF1FEE58FF4FA59176
:10020000B4918FB7F894EC91111108C0D095DE230A
:10021000DC938FBFDF91CF911F910895DE2BF8CF34
:10022000CF93DF9390E0FC01E656FF4F24918A576D
:100230009F4FFC0184918823D1F090E0880F991F93
:10024000FC01E859FF4FA591B491FC01EE58FF4F16
:10025000C591D49161110EC09FB7F8948C91E22F93
:10026000E0958E238C932881E223E8839FBFDF9162
:10027000CF9108958FB7F894EC91E22BEC938FBF58
:10028000F6CF089590E080E008958F929F92AF920C
:10029000BF920F931F93CF93DF93CDB7DEB7A19794
:1002A0000FB6F894DEBF0FBECDBF19A2423008F4DE
:1002B0004AE08E010F5D1F4F842E912CB12CA12C92
:1002C000A50194010E944D04E62FB901CA01EA304C
:1002D00044F5E05DD801EE938D01232B242B252BD3
:1002E00079F790E080E0109769F0FD01019000201F
:1002F000E9F73197AF014A1B5B0BBD018DE291E03D
:100300000E948C00A1960FB6F894DEBF0FBECDBF41
:10031000DF91CF911F910F91BF90AF909F908F90E1
:100320000895E95CD7CFFC0101900020E9F73197EF
:10033000AF01481B590BBC018DE291E00C948C007D
:10034000CF93DF93EC0160E08E810E94E20061E0D8
:100350008E810E94E20060E08E810E94E2008BE8C4
:1003600091E00197F1F7DF91CF910895CF92DF925D
:10037000EF92FF920F931F93CF93DF936C017C0159
:1003800087E0E80EF11CD0E0C0E0062F10E0B801D5
:100390000C2E02C0759567950A94E2F76170F7011B
:1003A00081917F010E94E2002196C430D10579F746
:1003B000C601DF91CF911F910F91FF90EF90DF90D9
:1003C000CF900C94A001CF92DF92EF92FF920F9307
:1003D0001F93CF93DF93EC01F62E642F8C810E9444
:1003E000E2008D818F3F19F060E00E94E2000F2D46
:1003F00010E08F8584FF25C06E0187E0C80ED11CF8
:10040000F12CE12CB8010E2C02C0759567950A9469
:10041000E2F76170F60181916F010E94E200FFEF47
:10042000EF1AFF0A88E0E816F10461F7CE01DF91C8
:10043000CF911F910F91FF90EF90DF90CF900C9490
:10044000A001B80184E0759567958A95E1F7CE0122
:100450000E94B6016F2DCE01DF91CF911F910F91B8
:10046000FF90EF90DF90CF900C94B60140E0682FA2
:100470008DE291E00C94E301CF93DF93823029F475
:1004800090913C01986090933C01809340011092C0
:10049000410180E48093420180E18093430180E543
:1004A0008093440161E0809131010E9410018091AC
:1004B00032018F3F19F061E00E94100161E08091EC
:1004C00033010E941001CDE2D1E09E012D52314056
:1004D00080913C0184FD0BC084E090E021962817B8
:1004E000390744F461E08E810E941001EECF88E06C
:1004F00090E0F4CF8BE39DE00197F1F760E080910D
:1005000031010E94E20060E0809133010E94E2002C
:10051000809132018F3F19F060E00E94E2008091EB
:100520003C0184FD39C063E08DE291E00E94B60198
:10053000CBE4D6E4CE010197F1F763E08DE291E0E0
:100540000E94B6012197F1F763E08DE291E00E94ED
:10055000B60183E592E00197F1F762E08DE291E068
:100560000E94B60180913C0180620E94360284E0C4
:1005700080933D018CE00E94360281E00E943602A9
:100580008BE39FE10197F1F782E080933E0186E0E3
:10059000DF91CF910C94360280620E9436028BE488
:1005A00096E40197F1F780913C0180620E94360247
:1005B00083E592E00197F1F780913C0180620E940F
:1005C0003602D0CF90914001691710F06FEF690F9C
:1005D000E62FF0E0E35DFE4F9489890F80680C946C
:1005E000360241E00E94E30181E090E008951F920D
:1005F0000F920FB60F9211242F933F938F939F93D7
:10060000AF93BF938091290190912A01A0912B0172
:10061000B0912C013091280123E0230F2D3758F59C
:100620000196A11DB11D209328018093290190936B
:100630002A01A0932B01B0932C0180912401909169
:100640002501A0912601B09127010196A11DB11DA0
:100650008093240190932501A0932601B093270154
:10066000BF91AF919F918F913F912F910F900FBEAE
:100670000F901F90189526E8230F0296A11DB11D1B
:10068000D2CF789484B5826084BD84B5816084BD06
:1006900085B5826085BD85B5816085BD80916E0020
:1006A000816080936E001092810080918100826051
:1006B000809381008091810081608093810080918E
:1006C00080008160809380008091B100846080937D
:1006D000B1008091B00081608093B00080917A0079
:1006E000846080937A0080917A00826080937A009F
:1006F00080917A00816080937A0080917A0080688E
:1007000080937A001092C10061E08DE00E94100198
:1007100060E080E00E94100182E00E943C0260E004
:1007200080E00E94E2028CE091E00E94930161E08F
:1007300080E00E94E20282E191E00E94930190E455
:10074000992ECEEAD0E00AE910E026E8E22E20E079
:10075000F22E30E0C32E30E0D32E90927C008091B8
:100760007A00806480937A0080917A0086FDFCCFC5
:10077000B090780080907900FE018491F801A490F7
:10078000F7017490772009F45DC081110E94B900CF
:10079000E72DF0E0EE0FFF1FE458FF4FA591B49155
:1007A0008C91A82209F44EC0AB2CB82C80913D014D
:1007B000982F946090933D018C600E94360261E016
:1007C00089E00E94E20225010B2C000C66087708E4
:1007D000B7FE23C041E06DE28DE291E00E94E301AB
:1007E00066277727CB0164197509860997094AE0BE
:1007F0000E94450161E08DE00E94E20060E089E036
:100800000E94E2028BE191E00E949301C114D104A5
:1008100009F4A3CF0E940000A0CF4AE0C301B201B7
:100820000E944501F5EFAF16F1E0BF061CF360E052
:100830008DE00E94E20060E089E00E94E2028FE128
:1008400091E0E2CF60E08DE00E94E20080913D0106
:100850008B7F80933D0188600E943602D7CFEDE206
:10086000F1E01382128284E091E0918380838CE036
:1008700084838FEF85838BE0868385E0878384E0A4
:10088000808783E0818782E08287138614861586BD
:100890001686178681E00C943C02A1E21A2EAA1B50
:1008A000BB1BFD010DC0AA1FBB1FEE1FFF1FA21720
:1008B000B307E407F50720F0A21BB30BE40BF50B1D
:1008C000661F771F881F991F1A9469F760957095A6
:1008D000809590959B01AC01BD01CF010895EE0F6D
:1008E000FF1F0590F491E02D0994F894FFCF0000CC
:1008F0000000F1028C00420141014C45443A2000C5
:1009000053656E736F723A20004F4E20004F46467B
:020910000000E5
:107E0000112484B714BE81FFF0D085E080938100F7
:107E100082E08093C00088E18093C10086E0809377
:107E2000C20080E18093C4008EE0C9D0259A86E02C
:107E300020E33CEF91E0309385002093840096BBD3
:107E4000B09BFECF1D9AA8958150A9F7CC24DD24C4
:107E500088248394B5E0AB2EA1E19A2EF3E0BF2EE7
:107E6000A2D0813461F49FD0082FAFD0023811F036
:107E7000013811F484E001C083E08DD089C08234E0
:107E800011F484E103C0853419F485E0A6D080C0E4
:107E9000853579F488D0E82EFF2485D0082F10E0AE
:107EA000102F00270E291F29000F111F8ED06801E7
:107EB0006FC0863521F484E090D080E0DECF843638
:107EC00009F040C070D06FD0082F6DD080E0C81688
:107ED00080E7D80618F4F601B7BEE895C0E0D1E017
:107EE00062D089930C17E1F7F0E0CF16F0E7DF06D8
:107EF00018F0F601B7BEE89568D007B600FCFDCFD4
:107F0000A601A0E0B1E02C9130E011968C91119780
:107F100090E0982F8827822B932B1296FA010C0160
:107F200087BEE89511244E5F5F4FF1E0A038BF0790
:107F300051F7F601A7BEE89507B600FCFDCF97BE46
:107F4000E89526C08437B1F42ED02DD0F82E2BD052
:107F50003CD0F601EF2C8F010F5F1F4F84911BD097
:107F6000EA94F801C1F70894C11CD11CFA94CF0C13
:107F7000D11C0EC0853739F428D08EE10CD085E9AC
:107F80000AD08FE07ACF813511F488E018D01DD067
:107F900080E101D065CF982F8091C00085FFFCCF94
:107FA0009093C60008958091C00087FFFCCF809118
:107FB000C00084FD01C0A8958091C6000895E0E648
:107FC000F0E098E1908380830895EDDF803219F02E
:107FD00088E0F5DFFFCF84E1DECF1F93182FE3DFCA
:107FE0001150E9F7F2DF1F91089580E0E8DFEE27F6
:047FF000FF270994CA
:027FFE00040479
:00000001FF
