:100000000C9462000C948A000C948A000C948A0070
:100010000C948A000C948A000C948A000C948A0038
:100020000C948A000C948A000C948A000C948A0028
:100030000C948A000C948A000C948A000C948A0018
:100040000C94E2090C948A000C948A000C948A00A7
:100050000C948A000C948A000C948A000C948A00F8
:100060000C942C0A0C948A00000000002400270045
:100070002A0000000000250028002B0000000008D6
:10008000000201000003040700000000000000005F
:1000900000000000230026002900040404040404D6
:1000A0000404020202020202030303030303010227
:1000B00004081020408001020408102001020408F6
:1000C00010204B0B11241FBECFEFD8E0DEBFCDBFF9
:1000D00011E0A0E0B1E0E4E0F1E202C005900D9291
:1000E000A83CB107D9F723E0A8ECB1E001C01D920C
:1000F000A832B207E1F710E0C2E6D0E004C02197D1
:10010000FE010E947A10C136D107C9F70E94DC0BAC
:100110000C9480100C94000096E0899FD00111246B
:10012000A955BD4F90967C936E935F9791E0919601
:100130009C939197E0911403F09115039091130310
:10014000992339F0309751F0811108C08091C30292
:100150000994309719F05C968C91FACF08958F929C
:100160009F92AF92BF92CF92DF92EF92FF92CF9386
:10017000DF93A0911D0330E081113A2F80911E037F
:1001800090E0880F991FAC0140575F4FC090230348
:10019000D0902403E0902503F090260360E070E007
:1001A000CB01FA01C591D49128812A2323130FC0D2
:1001B0004B015C012FEF821A920AA20AB20A6C1557
:1001C0007D058E059F0570F060E070E0CB01DF914A
:1001D000CF91FF90EF90DF90CF90BF90AF909F9026
:1001E0008F900895C501B401DCCF08950895AF92B2
:1001F000BF92CF92DF92EF92FF920F931F93CF9314
:10020000DF936C017B018B01040F151FEB015E0175
:10021000AE18BF08C017D10759F06991D601ED910A
:10022000FC910190F081E02DC6010995892B79F7A9
:10023000C501DF91CF911F910F91FF90EF90DF905B
:10024000CF90BF90AF900895833081F028F4813033
:1002500099F08230A9F008958730A9F08830C9F06C
:100260008430B1F4809180008F7D03C08091800044
:100270008F7780938000089584B58F7784BD08952B
:1002800084B58F7DFBCF8091B0008F778093B000D5
:1002900008958091B0008F7DF9CFCF93DF93282F01
:1002A00030E0F901E458FF4F8491F901E255FF4F26
:1002B000D491F901E656FF4FC491CC23A1F08111EE
:1002C0000E942401EC2FF0E0EE0FFF1FE057FF4FDC
:1002D000A591B491EC91ED2381E090E009F480E0E8
:1002E000DF91CF91089580E090E0FACF862F0C94B3
:1002F0004D011F93CF93DF93282F30E0F901E4588D
:10030000FF4F8491F901E255FF4FD491F901E65670
:10031000FF4FC491CC23A9F0162F81110E94240114
:10032000EC2FF0E0EE0FFF1FEE58FF4FA591B491B8
:100330008FB7F894EC91111108C0D095DE23DC93AF
:100340008FBFDF91CF911F910895DE2BF8CF862FBD
:10035000642F0C947901CF93DF9390E0FC01E25578
:10036000FF4F249186569F4FFC0184918823C9F04A
:1003700090E0880F991FFC01E859FF4FA591B491B7
:10038000FC01EE58FF4FC591D49161110DC09FB78C
:10039000F8948C91209582238C938881282328833C
:1003A0009FBFDF91CF910895623051F49FB7F894C9
:1003B0003C91822F809583238C93E8812E2BEFCF65
:1003C0008FB7F894EC912E2B2C938FBFEACF862F0A
:1003D000642F0C94AB013FB7F89480918302909105
:1003E0008402A0918502B091860226B5A89B05C023
:1003F0002F3F19F00196A11DB11D3FBFBA2FA92FA4
:10040000982F8827BC01CD01620F711D811D911DA0
:1004100042E0660F771F881F991F4A95D1F708950C
:100420008F929F92AF92BF92CF92DF92EF92FF9204
:100430004B015C010E94EB016B017C010E94EB010E
:100440006C197D098E099F09683E734081059105ED
:10045000A8F321E0821A9108A108B10888EEC80E1D
:1004600083E0D81EE11CF11C81149104A104B104A5
:1004700029F7FF90EF90DF90CF90BF90AF909F90C3
:100480008F9008952FB7F89460917F027091800249
:1004900080918102909182022FBF08950F931F9344
:1004A000CF93DF93C82FD62F86E0C89FF001112489
:1004B000E955FD4F11A2878D90A181309105F1F092
:1004C00058F082309105F1F1039709F440C0DF91B3
:1004D000CF911F910F9108956623C9F361E070E0F9
:1004E0008C2F0E948C000E9442026093FF02709346
:1004F00000038093010390930203E9CF0E9442021C
:100500000091FF021091000320910103309102033A
:10051000AB01BC01401B510B620B730B80911103AB
:1005200090911203B0E0A0E084179507A607B707E3
:1005300048F462E070E08C2FDF91CF911F910F9112
:100540000C948C0063E070E0D111C1CFF4CF70E067
:1005500060E0F1CF6F927F928F929F92AF92BF92A5
:10056000CF92DF92EF92FF920F931F93CF93DF937F
:1005700081E0809313030E944202009103031091D3
:1005800004032091050330910603AB01BC01401B1D
:10059000510B620B730B80910F0390911003B0E02D
:1005A000A0E084179507A607B70708F014C1C0E0BC
:1005B00080910D03C81760F4E0910903F0910A03DC
:1005C000EC0FF11D62E080810E94AB01CF5FF0CFA4
:1005D000712C812C912C5401839480910E037816F8
:1005E00008F05FC0072D10E0E0910B03F0910C03C1
:1005F000E00FF11F61E080810E94AB01E0910B03ED
:10060000F0910C03E00FF11F60E080810E947901FE
:10061000D501C401072C04C0880F991FAA1FBB1F56
:100620000A94D2F76C017C01E094F094612C8091E3
:100630000D036816F8F4C62DD0E0E0910903F0919F
:100640000A03EC0FFD1F80810E944D012496CC0F00
:10065000DD1FC955DD4F892B41F4888199818C2993
:100660009D29998388836394E2CF888199818E2123
:100670009F21F7CFE0910B03F0910C03E00FF11FE6
:1006800061E080810E94790180910B0390910C03BD
:10069000080F191F60E0F80180810E94AB0173947C
:1006A0009CCFC7EAD2E0FE018FEF9FEF278D30A1EC
:1006B000232B21F4148E968F858F11A2369622E07B
:1006C000E33EF20799F7F12C96E0D92E80910D03C5
:1006D000F81608F050C0E12C0F2D10E0000F111F8C
:1006E00001551D4F20910E03E21608F042C0F8019B
:1006F000608171810E2C02C0769567950A94E2F7AD
:10070000F29E900111242E0D311DE7EAF2E080E007
:10071000458D568D2417350709F461C08F5F3696D5
:100720008A30B1F760FF23C0E7EAF2E090E080E0B2
:10073000448D411117C0E0910703F0910803E20FC7
:10074000F31F4081D89EF001D99EF00D1124E95588
:10075000FD4F448F368F258F10A2178E61E00E94C7
:100760004E0205C0019636968A30910509F7E3944A
:10077000B9CFF394ABCF10E089A18111182F269641
:10078000F2E0C33EDF07C1F70E9442026093030319
:100790007093040380930503909306031123D9F00B
:1007A0008091C8028823B9F08091C6029091C70257
:1007B000019789F48091C302DF91CF911F910F912E
:1007C000FF90EF90DF90CF90BF90AF909F908F9071
:1007D0007F906F9008951092130380E0EDCF6170C9
:1007E000BECFCF92DF92EF92FF920F931F93CF93E2
:1007F000DF93CDB7DEB7C054D1400FB6F894DEBF5B
:100800000FBECDBF0E94420200911F031091200332
:1008100020912103309122036B017C01C01AD10A7F
:10082000E20AF30A97018601003D174021053105D0
:1008300090F480912703C05CDE4F0FB6F894DEBFC2
:100840000FBECDBFDF91CF911F910F91FF90EF9021
:10085000DF90CF90089560931F03709320038093DF
:1008600021039093220310921A03109219031092FD
:100870001803109217031092160361E080911B0376
:100880000E9479016AEF70E080E090E00E9410021F
:1008900061E080911B030E94AB0160E080911B032B
:1008A0000E94790164E170E080E090E00E94100213
:1008B000F89461E080911B030E9479018BE990E03C
:1008C0000197F1F762E080911B030E94AB0183E284
:1008D00090E00197F1F780E00E94AF00672B682B52
:1008E000692B29F410922703789480E0A4CF81E04B
:1008F0000E94AF00672B682B692BA1F38E010F5F5D
:100900001F4F6E018FEBC81A8EEFD80A780180E076
:100910000E94AF00F701608371838283938381E03B
:100920000E94AF00F7016483758386839783F8E0A4
:10093000EF0EF11CEC14FD0451F7789430E020E048
:10094000F801C080D180E280F380448155816681C6
:100950007781C114D104E104F10429F04115510556
:100960006105710519F410922703BFCFF90183E0E7
:10097000F595E7958A95E1F7EA5EFC4F8081880F4F
:10098000C416D506E606F70610F180832F5F3F4FA9
:10099000085F1F4F2832310599F640911A032091C4
:1009A000160380911703280F3327331F80911803F4
:1009B000280F311D80911903820F932F911D9927C4
:1009C0004817190681F681E08093270334CF8160B0
:1009D000DCCF089520910D02260F3327331F2132DB
:1009E0003105ECF420915602FC0190E080E02430C7
:1009F00069F082E00895A0910D022191AC0143516C
:100A00005E4FA40FB52FB11D2C930196861798F356
:100A100080910D02680F60930D0280E0089581E0DF
:100A200008951092560281E0809355021092300290
:100A300061E082E10E94790161E083E10E94790135
:100A4000E9EBF0E080818E7F808380818D7F8083E1
:100A500088E48093B80085E48093BC000895CF9328
:100A6000DF9391E09093EC018823B9F0C091B80036
:100A7000D091BA008091BC008A7B8093BC0060E07A
:100A800082E10E94790160E083E10E9479010E9485
:100A90001105D093BA00C093B800DF91CF910895AB
:100AA0000895E0918E0280918D02E81730F4F0E015
:100AB000E453FE4F808190E008958FEF9FEF0895FB
:100AC00090918E0280918D022FEF3FEF981748F49E
:100AD000E92FF0E0E453FE4F208130E09F5F9093D8
:100AE0008E02C901089580918D0290918E02891B1A
:100AF000990B0895CF92DF92EF92FF920F931F937D
:100B0000CF93DF937C01CB018A0120915C022223E9
:100B100089F0EB016B01C40ED51ECC15DD0569F023
:100B20006991D701ED91FC910190F081E02DC70111
:100B30000995F3CF642F0E94EA04C801DF91CF9199
:100B40001F910F91FF90EF90DF90CF900895CF937A
:100B5000DF931F92CDB7DEB7698320915C02222319
:100B6000F9F020918B02203258F021E030E0FC01B6
:100B70003383228390E080E00F90DF91CF9108953E
:100B800080918C02E82FF0E0E35AFD4F9981908329
:100B90008F5F80938C0280938B0281E090E0ECCF9A
:100BA00061E0CE0101960E94EA04F7CFCF92DF9276
:100BB000EF92FF920F931F93CF93DF93FC01C481B9
:100BC00021E020935C02C0937D0210928C0210926F
:100BD0008B028385682B8FE892E00E94A705D09155
:100BE0008B02D13208F092C00E94EB016B017C01B4
:100BF00080915602811165C082E08093560281E0A7
:100C0000809355028FEF8093540210925302D09339
:100C10005202ADE5B2E0E2E3F2E080E0D81385C035
:100C20001092310280913102CC0FC82BC093310257
:100C300080913002813009F07CC0109230020E9415
:100C4000EB016B017C01809131028093BB008091AC
:100C5000580290915902A0915A02B0915B02892BDF
:100C60008A2B8B2B99F00E94EB0100915802109176
:100C7000590220915A0230915B026C197D098E094C
:100C80009F090617170728073907E0F18091BC0074
:100C900083FDD9CF85EC8093BC000E94EB016B01F2
:100CA0007C0180915602823009F445C08091540243
:100CB0008F3F61F180915402803241F18091540262
:100CC00025C08091580290915902A0915A02B0918A
:100CD0005B02892B8A2B8B2B09F48ACF0E94EB01B4
:100CE000009158021091590220915A0230915B02F2
:100CF0006C197D098E099F09061717072807390700
:100D000008F076CF809157020E942F0510928C0236
:100D100010928B0210925C02DF91CF911F910F9184
:100D2000FF90EF90DF90CF9008959D9191938F5F0A
:100D300075CF85EEB0CF8091580290915902A09165
:100D40005A02B0915B02892B8A2B8B2B09F4A9CF15
:100D50000E94EB01009158021091590220915A0211
:100D600030915B026C197D098E099F0906171707E0
:100D70002807390708F095CFC5CF90E080E00895A7
:100D8000FC0101900020E9F73197AF01481B590B96
:100D9000BC018BE992E00C94F7008F929F92AF9286
:100DA000BF920F931F93CF93DF93CDB7DEB7A19779
:100DB0000FB6F894DEBF0FBECDBF19A2423008F4C3
:100DC0004AE08E010F5D1F4F842E912CB12CA12C77
:100DD000A50194010E945810E62FB901CA01EA301A
:100DE000F4F4E05DD801EE938D01232B242B252B09
:100DF00079F790E080E0109719F0CD010E94C006CD
:100E0000A1960FB6F894DEBF0FBECDBFDF91CF9194
:100E10001F910F91BF90AF909F908F900895E95CC4
:100E2000E1CF0C94C0060F931F93CF938C01C62F74
:100E30000E94D6056C2F6460C8010E94D6056C2FF5
:100E40006B7FC8010E94D60583EC90E00197F1F713
:100E5000CF911F910F9108950F931F93CF93DF931D
:100E60008C01D62FC42F607F642B0E94130780E172
:100E7000D89FB00111246C2BC801DF91CF911F9135
:100E80000F910C941307CF93DF93CDB7DEB728975C
:100E90000FB6F894DEBF0FBECDBF98E0ECE1F1E0F5
:100EA000DE01119601900D929A95E1F79091A302BF
:100EB000961710F46FEF690F262F30E0220F331FC3
:100EC00041E050E04C0F5D1F240F351FF901608198
:100ED000680F606840E08BE992E028960FB6F894BE
:100EE000DEBF0FBECDBFDF91CF910C942C0741E048
:100EF0000E942C0781E090E0089541E0682F8BE983
:100F000092E00E942C0781E090E00895CF92DF925A
:100F1000EF92FF92CF93DF9397FF19C06B017C0193
:100F20008DE20E947D07EC0166277727CB016C19C3
:100F30007D098E099F094AE00E94CD068C0F9D1FF6
:100F4000DF91CF91FF90EF90DF90CF9008954AE02E
:100F5000DF91CF91FF90EF90DF90CF900C94CD0672
:100F6000CF93DF93EC0180E591E00E94110760E0F0
:100F700080E10E944307BE01DD0F880B990B0E94A0
:100F8000860783EB91E00E94110761E080E00E94F8
:100F900043078CE491E0DF91CF910C9411074F92BD
:100FA0005F926F927F928F929F92AF92BF92CF92F9
:100FB000DF92EF92FF920F931F93CF936B017C010F
:100FC000742EAC019B010E945310882399F08EE58A
:100FD00091E0CF911F910F91FF90EF90DF90CF9014
:100FE000BF90AF909F908F907F906F905F904F9049
:100FF0000C94C00646015701E894B7F82FEF3FEF75
:101000004FE75FE7C501B4010E94531081110DC085
:101010002FEF3FEF4FE75FE7C501B4010E94890E54
:1010200018161CF482E691E0D4CF2FEF3FEF4FE784
:101030005FE4C701B6010E94E10F18161CF486E6B2
:1010400091E0C7CF2FEF3FEF4FE75FECC701B6014D
:101050000E94890E87FDF3CF20E030E0A901C7018F
:10106000B6010E94890E10E000E087FF08C08DE203
:101070000E947D078C01F7FAF094F7F8F094C0E035
:1010800060E070E080E09FE37C1641F020E030E01B
:1010900040E251E40E948E0ECF5FF6CFA701960189
:1010A0000E941D0E2B013C010E94000F4B015C01B0
:1010B0004AE00E94CD067C01E00EF11ECC23B1F186
:1010C000C501B4010E942F0F9B01AC01C301B20105
:1010D0000E941C0E4B015C018EE20E947D07E80E0F
:1010E000F91EC15018F120E030E040E251E4C501A2
:1010F000B4010E94E60F2B013C010E94000F4B013E
:10110000B12CA12C4AE0C501B4010E94CD06E80E25
:10111000F91EC501B4010E942F0F9B01AC01C30150
:10112000B2010E941C0E4B015C01DBCFC701CF91C5
:101130001F910F91FF90EF90DF90CF90BF90AF90F5
:101140009F908F907F906F905F904F90089540E0B8
:1011500061E08BE992E00E942C078BE39FE101970D
:10116000F1F7089585ED8093BC008091580290912D
:101170005902A0915A02B0915B020796A11DB11DC0
:1011800023E0B695A795979587952A95D1F7209155
:10119000BC0024FD03C010925602089540915802ED
:1011A0005091590260915A0270915B02452B462B77
:1011B000472B69F30097A105B10541F025E32A9576
:1011C000F1F700000197A109B109E1CF8091570221
:1011D0000C942F05CF93DF932091C6023091C70264
:1011E0002130310509F0EBC08A3209F07DC0C09191
:1011F0000001D09101010E94A70860E080E00E94F8
:1012000043078AE691E00E94110760E080E10E94B6
:10121000430760E080E10E944307BE01DD0F880BB9
:10122000990B0E9486078BE791E00E94110761E00D
:1012300080E00E9443078DE791E00E9411070E9421
:10124000AA02C82F80ED8C0F8A3070F5D091CB01A7
:1012500062E08D2F0E944307ED2FF0E0E853FE4F30
:10126000C0838C2F0E947D07DF5FD093CB01CD33ED
:1012700059F563E080E00E94430783E991E00E9412
:10128000110788EC91E00E94F60D90930101809384
:1012900000011092CB011092CB016CED75E080E063
:1012A00090E00E9410021CC0CD32A1F48091CB01CD
:1012B000882351F081508093CB0162E00E94430764
:1012C00081E991E00E9411078091CB01833009F000
:1012D000B6CFCFCFC33459F61092CB011092CB01C9
:1012E000DF91CF910C94A708853209F068C0C091B6
:1012F0000201D09103010E94A70860E080E00E94F3
:101300004307CE010E94B0070E94AA02C82F80EDB9
:101310008C0F8A3060F5D091CB0162E08D2F0E9456
:101320004307ED2FF0E0E853FE4FC0838C2F0E945F
:101330007D07DF5FD093CB01CD3361F588EC91E081
:101340000E94F60DEC011092CB011092CB01853674
:10135000910534F563E080E00E94430783E991E062
:101360000E941107D0930301C093020196CFC334AA
:1013700009F4B2CFCD3201F78091CB01882351F02F
:1013800081508093CB0162E00E94430781E991E0A4
:101390000E9411078091CB01833009F0B5CFCECFE9
:1013A00063E080E00E94430780EA91E00E94110719
:1013B00064EC79E080E090E00E94100298CFDF9129
:1013C000CF9108951F920F920FB60F9211242F9371
:1013D0003F938F939F93AF93BF9380917F029091A0
:1013E0008002A0918102B091820230917E0223E0BE
:1013F000230F2D3758F50196A11DB11D20937E02B4
:1014000080937F0290938002A0938102B093820226
:101410008091830290918402A0918502B09186020E
:101420000196A11DB11D8093830290938402A09325
:101430008502B0938602BF91AF919F918F913F91AA
:101440002F910F900FBE0F901F90189526E8230F35
:101450000296A11DB11DD2CF1F920F920FB60F920F
:1014600011242F933F934F935F936F937F938F93A9
:101470009F93AF93BF93EF93FF938091B900887FC1
:10148000803609F44AC0F0F5883209F4A7C018F58F
:10149000803109F49BC0B8F4882309F4F9C088307E
:1014A00009F494C0FF91EF91BF91AF919F918F91FB
:1014B0007F916F915F914F913F912F910F900FBE50
:1014C0000F901F901895883109F488C0803251F729
:1014D0008093540214C0803409F49DC040F48033DA
:1014E000B9F38833F9F68093540285ECB0C08035A7
:1014F00009F485C0883509F496C0883499F60E94AD
:10150000B208D0CF883909F48CC038F5883729F073
:1015100050F4883611F0803729F683E08093560224
:1015200010922F0257C0883809F47BC0803919F017
:10153000803809F0B7CF80912F02803208F071C057
:10154000E0912F0281E08E0F80932F028091BB00EB
:10155000F0E0E15FFD4F80833DC0803B39F0E0F477
:10156000803A09F479C0883A09F09CCF84E08093EE
:10157000560210920E0210920D02E0918902F09133
:101580008A02099580910D0281110FC081E080933C
:101590000D021092ED0109C0803C09F4A6CF883CF1
:1015A00009F4A3CF883B09F07DCFE0910E0281E0E2
:1015B0008E0F80930E02F0E0E351FE4F8081809306
:1015C000BB0090910E0280910D0229C080913102E2
:1015D0008093BB0085EC8093BC0064CF9091530254
:1015E00080915202981758F5E091530281E08E0FD6
:1015F00080935302F0E0EE5CFD4F8081E9CFE091F3
:10160000530281E08E0F809353028091BB00F0E083
:10161000EE5CFD4F808390915302809152029817A7
:10162000C8F285E8D8CFE091530281E08E0F809315
:1016300053028091BB00F0E0EE5CFD4F808380910F
:10164000550281115CCF81E08093300284EA80935F
:10165000BC001092560226CF85EC8093BC001092FD
:10166000560280912F02803230F4E0912F02F0E098
:10167000E15FFD4F108260912F0270E0E0918702E0
:10168000F09188028FE092E0099510922F020ACF24
:101690001092540234CF109292021092910288EE6E
:1016A00093E0A0E0B0E08093930290939402A09323
:1016B0009502B093960288E291E090939002809315
:1016C0008F0283E080931B0386E180931C03E1EB90
:1016D000F0E0E491E0931D03EDE9F0E0E491E093A4
:1016E0001E0380E89EE3A0E0B0E080932303909384
:1016F0002403A0932503B09326031092A90210920D
:10170000AD021092AC021092AE0286E491E090938A
:10171000A8028093A702E3ECF2E010821482138205
:101720001582369682E0EF3FF807B9F788E091E03E
:1017300090930A038093090384E091E090930C0353
:1017400080930B0384E080930D0380930E032CE0C1
:1017500031E030930803209307032AE030E0309310
:10176000100320930F0324EF31E0309312032093F2
:101770001103109215031092140310920303109298
:1017800004031092050310920603109213031092A3
:101790009E0210929D022AE331E030939C02209336
:1017A0009B0290E290939F0294E19093A402809315
:1017B000A5021092A6020895CF93DF93CDB7DEB7AE
:1017C00028970FB6F894DEBF0FBECDBF789484B5CE
:1017D000826084BD84B5816084BD85B5826085BD2D
:1017E00085B5816085BD80916E00816080936E00BB
:1017F00010928100809181008260809381008091AD
:10180000810081608093810080918000816080935D
:1018100080008091B10084608093B1008091B0001D
:1018200081608093B00080917A00846080937A0018
:1018300080917A00826080937A0080917A00816042
:1018400080937A0080917A00806880937A00109269
:10185000C10010928E0210928D0210928C02109292
:101860008B020E94110585EF90E090938A0280938D
:10187000890286EF90E0909388028093870210920D
:10188000A0028091A502823018F098E09093A00207
:101890008093A30262E370E080E090E00E94100277
:1018A0006091A6028BE992E00E94D60568EE73E093
:1018B00080E090E00E94100260E38BE992E00E94D9
:1018C00013078BE496E40197F1F760E38BE992E06C
:1018D0000E9413072BE436E4C9010197F1F760E396
:1018E0008BE992E00E94130783E592E00197F1F7FC
:1018F00060E28BE992E00E9413076091A0026062AF
:1019000040E08BE992E00E942C0784E08093A102E2
:1019100040E06CE08BE992E00E942C070E94A7084F
:1019200082E08093A20240E066E08BE992E00E94B0
:101930002C0740E062E08BE992E00E942C078BE3E9
:101940009FE10197F1F788E08093A60260E08BE9C0
:1019500092E00E94D60562E080911B030E94AB01D9
:1019600080E398EFAFEFBFEF80931F0390932003C6
:10197000A0932103B09322038AEE98E0909315037D
:101980008093140300E010E00E94F103882341F0EB
:1019900080911C038B3059F018F08551823020F172
:1019A000812C912C90ECA92E9FE7B92E09C0609153
:1019B000160370E090E080E00E942F0F4B015C0165
:1019C0000E94F103882349F080911C038B3069F158
:1019D00020F08551823008F4DCC0C12CD12C80EC81
:1019E000E82E8FE7F82E2AC06091160370E090E091
:1019F00080E00E942F0F20E030E040E853E40E9496
:101A0000E60F6B017C016091170370E090E080E0CD
:101A10000E94310FA70196010E941D0E2DEC3CEC97
:101A20004CEC5DE30E94E60FC9CF6091180370E0B3
:101A300090E080E00E942F0F6B017C010E94AA02BF
:101A400080910201909103014091000150910101A8
:101A50005A8349839C01990F440B550B2D833E8378
:101A60004F835887CA01B9010E94310F2B013C01F5
:101A7000A50194010E94890E61E018164CF4A5019D
:101A80009401C301B2010E94E10F181624F460E032
:101A900081E00E94790149815A812A01550F660827
:101AA0007708C301B2010E94310F69837A838B8367
:101AB0009C83A70196010E94E10F61E087FF0BC0A4
:101AC000A701960169817A818B819C810E94890E90
:101AD00087FF04C060E082E00E94790160E080E05E
:101AE0000E9443078EE691E00E94110761E080E0CA
:101AF0000E94430784E591E00E94110760E08DE0B9
:101B00000E94430742E0C701B6010E94CF078BE75E
:101B100091E00E94110761E08DE00E94430742E0DE
:101B2000C501B4010E94CF0783EB91E00E94110729
:101B300062E080E00E94430785EB91E00E9411077C
:101B400062E08DE00E944307C301B2010E94860754
:101B50008BE791E00E94110763E080E00E94430759
:101B60008FEB91E00E94110763E08DE00E94430734
:101B70006D817E818F8198850E94860783EB91E03D
:101B80000E9411070115110509F4FECE0E94000004
:101B9000FBCE909118039983692F6F7770E090E0E6
:101BA00080E00E94310F20E030E040E853E40E94E2
:101BB000E60F6B017C016091190370E090E080E01A
:101BC0000E94310FA70196010E941D0E2DEC3CECE6
:101BD0004CEC5DE30E94E60F6B017C01298127FF3D
:101BE0002DCFF7FAF094F7F8F09428CFFC0188276E
:101BF0009927E89421912032E9F3293010F02E3012
:101C0000C8F32B3241F02D3239F4689404C00E949D
:101C1000140E820F911D219120532A30C0F31EF41F
:101C2000909581959F4F08957AE0979F902D879F7B
:101C3000802D910D112408955058BB27AA270E948A
:101C4000340E0C94A70F0E94990F38F00E94A00F39
:101C500020F039F49F3F19F426F40C94960F0EF4FB
:101C6000E095E7FB0C94900FE92F0E94B80F58F312
:101C7000BA17620773078407950720F079F4A6F571
:101C80000C94DA0F0EF4E0950B2EBA2FA02D0B0159
:101C9000B90190010C01CA01A0011124FF27591BB1
:101CA00099F0593F50F4503E68F11A16F040A22FB7
:101CB000232F342F4427585FF3CF46953795279528
:101CC000A795F0405395C9F77EF41F16BA0B620B27
:101CD000730B840BBAF09150A1F0FF0FBB1F661F6E
:101CE000771F881FC2F70EC0BA0F621F731F841FB1
:101CF00048F4879577956795B795F7959E3F08F0D7
:101D0000B0CF9395880F08F09927EE0F9795879598
:101D100008950E946C0F08F481E008950E94A20EBD
:101D20000C94A70F0E94A00F58F00E94990F40F04A
:101D300029F45F3F29F00C94900F51110C94DB0FA4
:101D40000C94960F0E94B80F68F39923B1F35523B2
:101D500091F3951B550BBB27AA27621773078407BE
:101D600038F09F5F5F4F220F331F441FAA1FA9F354
:101D700035D00E2E3AF0E0E832D091505040E69542
:101D8000001CCAF72BD0FE2F29D0660F771F881FA3
:101D9000BB1F261737074807AB07B0E809F0BB0B96
:101DA000802DBF01FF2793585F4F3AF09E3F5105AA
:101DB00078F00C94900F0C94DB0F5F3FE4F3983EA7
:101DC000D4F3869577956795B795F7959F5FC9F793
:101DD000880F911D9695879597F90895E1E0660F14
:101DE000771F881FBB1F621773078407BA0720F08D
:101DF000621B730B840BBA0BEE1F88F7E0950895F6
:101E00000E94C00F88F09F5798F0B92F9927B751BB
:101E1000B0F0E1F0660F771F881F991F1AF0BA958E
:101E2000C9F714C0B13091F00E94DA0FB1E0089503
:101E30000C94DA0F672F782F8827B85F39F0B93FF5
:101E4000CCF3869577956795B395D9F73EF4909541
:101E50008095709561957F4F8F4F9F4F0895E894BF
:101E600009C097FB3EF490958095709561957F4FE2
:101E70008F4F9F4F9923A9F0F92F96E9BB27939590
:101E8000F695879577956795B795F111F8CFFAF4A0
:101E9000BB0F11F460FF1BC06F5F7F4F8F4F9F4FD1
:101EA00016C0882311F096E911C0772321F09EE82F
:101EB000872F762F05C0662371F096E8862F70E095
:101EC00060E02AF09A95660F771F881FDAF7880F6F
:101ED0009695879597F90895990F0008550FAA0BC5
:101EE000E0E8FEEF16161706E807F907C0F012162D
:101EF0001306E407F50798F0621B730B840B950B30
:101F000039F40A2661F0232B242B252B21F4089584
:101F10000A2609F4A140A6958FEF811D811D089521
:101F200097F99F6780E870E060E008959FEF80EC8C
:101F3000089500240A94161617061806090608952F
:101F400000240A9412161306140605060895092E95
:101F50000394000C11F4882352F0BB0F40F4BF2B04
:101F600011F460FF04C06F5F7F4F8F4F9F4F089544
:101F700057FD9058440F551F59F05F3F71F047953A
:101F8000880F97FB991F61F09F3F79F0879508951F
:101F9000121613061406551FF2CF4695F1DF08C03E
:101FA000161617061806991FF1CF8695710561055B
:101FB00008940895E894BB2766277727CB0197F903
:101FC00008950E946C0F08F48FEF08950E94F90F96
:101FD0000C94A70F0E94990F38F00E94A00F20F0D8
:101FE000952311F00C94900F0C94960F11240C94DF
:101FF000DB0F0E94B80F70F3959FC1F3950F50E06F
:10200000551F629FF001729FBB27F00DB11D639FAA
:10201000AA27F00DB11DAA1F649F6627B00DA11D50
:10202000661F829F2227B00DA11D621F739FB00DF6
:10203000A11D621F839FA00D611D221F749F332766
:10204000A00D611D231F849F600D211D822F762FFF
:102050006A2F11249F5750409AF0F1F088234AF0DC
:10206000EE0FFF1FBB1F661F771F881F9150504048
:10207000A9F79E3F510580F00C94900F0C94DB0F54
:102080005F3FE4F3983ED4F3869577956795B795CF
:10209000F795E7959F5FC1F7FE2B880F911D9695E9
:1020A000879597F908950E946C0F880B990B0895F6
:1020B000A1E21A2EAA1BBB1BFD010DC0AA1FBB1F4C
:1020C000EE1FFF1FA217B307E407F50720F0A21BBE
:1020D000B30BE40BF50B661F771F881F991F1A942B
:1020E00069F760957095809590959B01AC01BD0155
:1020F000CF010895EE0FFF1F0590F491E02D099494
:04210000F894FFCF81
:1021040019001400070605040B0A09083738392595
:102114003435362A3132332D43303D2B0000400014
:102124001400540000000000A7057A05BD06500500
:10213400730560055105000000007707F700BD0630
:10214400E90400000000E701A7017601536574204B
:102154004D41582048756D69646974793A006E611F
:102164006E00696E66006F7666004D494E205465B8
:102174006D70657261747572653A004300536574DD
:10218400204D494E2054656D706572617475726599
:102194003A20004461746120536176656420210013
:1021A40053686F756C6420626520756E6465722077
:1021B40031303025004D494E2054656D703A004D44
:0821C40041582048756D3A00F6
:00000001FF
