:100000000C9462000C948A000C948A000C948A0070
:100010000C948A000C948A000C948A000C948A0038
:100020000C948A000C948A000C948A000C948A0028
:100030000C948A000C948A000C948A000C948A0018
:100040000C9479050C948A000C948A000C948A0014
:100050000C948A000C948A000C948A000C948A00F8
:100060000C948A000C948A000000000024002700F1
:100070002A0000000000250028002B0004040404CE
:100080000404040402020202020203030303030342
:10009000010204081020408001020408102001021F
:1000A00004081020000000080002010000030407FB
:1000B00000000000000000000000000023002600F7
:1000C00029003A0711241FBECFEFD8E0DEBFCDBF15
:1000D00011E0A0E0B1E0EEEBF3E102C005900D927B
:1000E000A634B107D9F721E0A6E4B1E001C01D9222
:1000F000A937B207E1F710E0C2E6D0E004C02197CB
:10010000FE010E94D709C136D107C9F70E94C30575
:100110000C94DD090C9400008F929F92AF92BF92D5
:10012000CF92DF92EF92FF92CF93DF93A09156018F
:1001300030E081113A2F8091570190E0880F991F8C
:10014000AC0148545F4FC0905C01D0905D01E090DD
:100150005E01F0905F0160E070E0CB01FA01C591B3
:10016000D49128812A2323130FC04B015C012FEF68
:10017000821A920AA20AB20A6C157D058E059F05A5
:1001800070F060E070E0CB01DF91CF91FF90EF90D5
:10019000DF90CF90BF90AF909F908F900895C50152
:1001A000B401DCCFAF92BF92CF92DF92EF92FF9279
:1001B0000F931F93CF93DF936C017B018B01040F8F
:1001C000151FEB015E01AE18BF08C017D10759F02B
:1001D0006991D601ED91FC910190F081E02DC6016D
:1001E0000995892B79F7C501DF91CF911F910F9167
:1001F000FF90EF90DF90CF90BF90AF90089590E088
:10020000FC01EC55FF4F2491FC01E057FF4F349166
:10021000FC01E458FF4FE491EE23C9F0222339F0AA
:10022000233001F1A8F4213019F1223029F1F0E056
:10023000EE0FFF1FEE58FF4FA591B4918FB7F894C2
:10024000EC91611126C030953E233C938FBF0895F9
:100250002730A9F02830C9F0243049F78091800078
:100260008F7D03C0809180008F7780938000DFCFE7
:1002700084B58F7784BDDBCF84B58F7DFBCF809134
:10028000B0008F778093B000D2CF8091B0008F7D87
:10029000F9CF3E2BDACFCF93DF9390E0FC01E0570C
:1002A000FF4F249184589F4FFC0184918823D1F003
:1002B00090E0880F991FFC01E859FF4FA591B49178
:1002C000FC01EE58FF4FC591D491623071F49FB795
:1002D000F8943C91822F809583238C93E8812E2B78
:1002E00028839FBFDF91CF9108958FB7F894EC9149
:1002F0002E2B2C938FBFF6CF3FB7F89480914701F8
:1003000090914801A0914901B0914A0126B5A89B5E
:1003100005C02F3F19F00196A11DB11D3FBFBA2F97
:10032000A92F982F8827BC01CD01620F711D811D57
:10033000911D42E0660F771F881F991F4A95D1F7DC
:1003400008958F929F92AF92BF92CF92DF92EF92D9
:10035000FF924B015C010E947C016B017C010E94B9
:100360007C016C197D098E099F09683E73408105E7
:100370009105A8F321E0821A9108A108B10888EE3E
:10038000C80E83E0D81EE11CF11C81149104A10465
:10039000B10429F7FF90EF90DF90CF90BF90AF901E
:1003A0009F908F900895CF92DF92EF92FF920F93DC
:1003B0001F93CF93DF93CDB7DEB7C054D1400FB6B4
:1003C000F894DEBF0FBECDBF2FB7F89480914B01DC
:1003D00090914C01A0914D01B0914E012FBF4091E1
:1003E00058015091590160915A0170915B018C0143
:1003F0009D01041B150B260B370BB901A801403DCD
:1004000057406105710590F480916001C05CDE4F3A
:100410000FB6F894DEBF0FBECDBFDF91CF911F9115
:100420000F91FF90EF90DF90CF9008958093580147
:1004300090935901A0935A01B0935B01109253011C
:1004400010925201109251011092500110924F01DE
:1004500061E0809154010E94FF006AEF70E080E04B
:1004600090E00E94A10161E0809154010E944B0143
:1004700060E0809154010E94FF0064E170E080E040
:1004800090E00E94A101F89461E0809154010E94E3
:10049000FF008BE990E00197F1F762E08091540151
:1004A0000E944B0183E290E00197F1F780E00E9407
:1004B0008C00672B682B692B29F4109260017894CB
:1004C00080E0A4CF81E00E948C00672B682B692B11
:1004D000A1F38E010F5F1F4F6E012FEBC21A2EEF9B
:1004E000D20A780180E00E948C00F701608371835A
:1004F0008283938381E00E948C00F701648375837B
:1005000086839783F8E0EF0EF11CEC14FD0451F79D
:10051000789430E020E0F801C080D180E280F38060
:100520004481558166817781C114D104E104F104CD
:1005300029F0411551056105710519F4109260010A
:10054000BFCFF90183E0F595E7958A95E1F7E15B87
:10055000FE4F8081880FC416D506E606F70610F117
:1005600080832F5F3F4F085F1F4F2832310599F678
:100570004091530120914F0180915001280F332762
:10058000331F80915101280F311D80915201820F3C
:10059000932F911D99274817190681F681E08093C2
:1005A000600134CF8160DCCF089590E080E0089551
:1005B000FC0101900020E9F73197AF01481B590B6E
:1005C000BC0181E691E00C94D2008F929F92AF9291
:1005D000BF920F931F93CF93DF93CDB7DEB7A19751
:1005E0000FB6F894DEBF0FBECDBF19A2423008F49B
:1005F0004AE08E010F5D1F4F842E912CB12CA12C4F
:10060000A50194010E94B509E62FB901CA01EA309B
:10061000F4F4E05DD801EE938D01232B242B252BE0
:1006200079F790E080E0109719F0CD010E94D80290
:10063000A1960FB6F894DEBF0FBECDBFDF91CF916C
:100640001F910F91BF90AF909F908F900895E95C9C
:10065000E1CFCF93DF93EC0160E08E810E94FF0039
:1006600061E08E810E94FF0060E08E810E94FF00A9
:100670008BE891E00197F1F7DF91CF910895CF9248
:10068000DF92EF92FF920F931F93CF93DF936C0152
:100690007C0187E0E80EF11CD0E0C0E0062F10E0FE
:1006A000B8010C2E02C0759567950A94E2F7617047
:1006B000F70181917F010E94FF002196C430D1058E
:1006C00079F7C601DF91CF911F910F91FF90EF90C5
:1006D000DF90CF900C942903CF92DF92EF92FF929C
:1006E0000F931F93CF93DF93EC01F62E642F8C8131
:1006F0000E94FF008D818F3F19F060E00E94FF0093
:100700000F2D10E08F8584FF25C06E0187E0C80E95
:10071000D11CF12CE12CB8010E2C02C07595679507
:100720000A94E2F76170F60181916F010E94FF0067
:10073000FFEFEF1AFF0A88E0E816F10461F7CE0137
:10074000DF91CF911F910F91FF90EF90DF90CF90AD
:100750000C942903B80184E0759567958A95E1F7B3
:10076000CE010E943F036F2DCE01DF91CF911F91EB
:100770000F91FF90EF90DF90CF900C943F0340E0FB
:10078000682F81E691E00C946C03CF93DF93613086
:1007900029F09091700198609093700160937401BA
:1007A0001092750190E49093760180937701805CBC
:1007B0008093780161E0809165010E944B018091F6
:1007C00066018F3F19F061E00E944B0161E080916A
:1007D00067010E944B01C1E6D1E09E0121563140E4
:1007E0008091700184FD0BC084E090E02196281771
:1007F000390744F461E08E810E944B01EECF88E01E
:1008000090E0F4CF8BE39DE00197F1F760E08091F9
:1008100065010E94FF0060E0809167010E94FF0077
:10082000809166018F3F19F060E00E94FF00809187
:10083000700184FD39C063E081E691E00E943F03CE
:10084000CBE4D6E4CE010197F1F763E081E691E0D5
:100850000E943F032197F1F763E081E691E00E9457
:100860003F0383E592E00197F1F762E081E691E0D2
:100870000E943F038091700180620E94BF0384E068
:10088000809371018CE00E94BF0381E00E94BF034E
:100890008BE39FE10197F1F782E08093720186E09C
:1008A000DF91CF910C94BF0380620E94BF038BE461
:1008B00096E40197F1F78091700180620E94BF0376
:1008C00083E592E00197F1F78091700180620E94C8
:1008D000BF03D0CF90917401691710F06FEF690FCB
:1008E000E62FF0E0EF59FE4F9489890F80680C9451
:1008F000BF0341E00E946C0381E090E00895CF9235
:10090000DF92EF92FF926B017C0141E06DE281E6A4
:1009100091E00E946C0366277727CB016C197D0953
:100920008E099F094AE00E94E5020196FF90EF9030
:10093000DF90CF9008954F925F926F927F928F9247
:100940009F92AF92BF92CF92DF92EF92FF920F935E
:100950001F93CF936B017C01742EAC019B010E940D
:10096000B009882399F08CE091E0CF911F910F910D
:10097000FF90EF90DF90CF90BF90AF909F908F90BF
:100980007F906F905F904F900C94D8024601570172
:10099000E894B7F82FEF3FEF4FE75FE7C501B401E9
:1009A0000E94B00981110DC02FEF3FEF4FE75FE7C5
:1009B000C501B4010E94E60718161CF480E191E01D
:1009C000D4CF2FEF3FEF4FE75FE4C701B6010E949E
:1009D0003E0918161CF484E191E0C7CF2FEF3FEFDA
:1009E0004FE75FECC701B6010E94E60787FDF3CF32
:1009F00020E030E0A901C701B6010E94E60710E03F
:100A000000E087FF0CC041E06DE281E691E00E94CA
:100A10006C03F7FAF094F7F8F09401E010E0C0E00E
:100A200060E070E080E09FE37C1641F020E030E081
:100A300040E251E40E94EB07CF5FF6CFA701960199
:100A40000E947A074B015C010E945D082B013C016A
:100A50004AE00E94E502080F191FCC23C9F1C30127
:100A6000B2010E948C089B01AC01C501B4010E9437
:100A700079074B015C0141E06EE281E691E00E9462
:100A80006C030F5F1F4FC15018F120E030E040E2CF
:100A900051E4C501B4010E9443092B013C010E94AD
:100AA0005D084B01B12CA12C4AE0C501B4010E94A4
:100AB000E502080F191FC501B4010E948C089B01B3
:100AC000AC01C301B2010E9479074B015C01DBCF8D
:100AD000C801CF911F910F91FF90EF90DF90CF90C1
:100AE000BF90AF909F908F907F906F905F904F904E
:100AF00008951F920F920FB60F9211242F933F93D8
:100B00008F939F93AF93BF9380914B0190914C0132
:100B1000A0914D01B0914E013091460123E0230F89
:100B20002D3758F50196A11DB11D209346018093E4
:100B30004B0190934C01A0934D01B0934E018091D5
:100B4000470190914801A0914901B0914A01019655
:100B5000A11DB11D8093470190934801A0934901C5
:100B6000B0934A01BF91AF919F918F913F912F9187
:100B70000F900FBE0F901F90189526E8230F029636
:100B8000A11DB11DD2CF789484B5826084BD84B597
:100B9000816084BD85B5826085BD85B5816085BD78
:100BA00080916E00816080936E0010928100809130
:100BB00081008260809381008091810081608093B8
:100BC0008100809180008160809380008091B100DD
:100BD00084608093B1008091B00081608093B00008
:100BE00080917A00846080937A0080917A0082609C
:100BF00080937A0080917A00816080937A0080915E
:100C00007A00806880937A001092C10064E084E1E9
:100C10000E94C50362E0809154010E944B0180E371
:100C200098EFAFEFBFEF8093580190935901A093D5
:100C30005A01B0935B0161E082E00E944B0161E0E8
:100C400081E00E944B01C0E0D0E00E94D3018823E4
:100C500041F0809155018B3059F018F08551823068
:100C600020F1812C912C90ECA92E9FE7B92E09C080
:100C700060914F0170E090E080E00E948C084B0191
:100C80005C010E94D301882349F0809155018B308B
:100C900069F120F08551823008F4C1C0C12CD12CFB
:100CA00080ECE82E8FE7F82E2AC060914F0170E0AB
:100CB00090E080E00E948C0820E030E040E853E4BF
:100CC0000E9443096B017C016091500170E090E04B
:100CD00080E00E948E08A70196010E947A072DEC01
:100CE0003CEC4CEC5DE30E944309C9CF609151019B
:100CF00070E090E080E00E948C086B017C0120E0B5
:100D000030E040EA51E4C501B4010E943E0961E0CF
:100D100087FF0BC020E030E040EA51E4C501B40198
:100D20000E94E60787FF04C060E081E00E94FF00A8
:100D300020E030E040EE51E4C701B6010E94E60732
:100D400061E018165CF420E030E040EE51E4C701A9
:100D5000B6010E943E09181624F460E082E00E9469
:100D6000FF0060E080E00E946A0488E191E00E9458
:100D7000D80261E080E00E946A0485E291E00E946E
:100D8000D80260E08DE00E946A0442E0C701B6012B
:100D90000E949B048FE291E00E94D80261E08DE006
:100DA0000E946A0442E0C501B4010E949B0481E3F1
:100DB00091E00E94D80262E080E00E946A0483E32E
:100DC00091E00E94D80262E08DE00E946A044AE04D
:100DD0006CE170E080E090E00E94E5028FE291E03B
:100DE0000E94D80263E080E00E946A048DE391E0F3
:100DF0000E94D80263E08DE00E946A044AE064E148
:100E000070E080E090E00E94E50281E391E00E94C2
:100E1000D802209709F419CF0E94000016CF109134
:100E20005101612F6F7770E090E080E00E948E08A2
:100E300020E030E040E853E40E9443096B017C016C
:100E40006091520170E090E080E00E948E08A7015E
:100E500096010E947A072DEC3CEC4CEC5DE30E947D
:100E600043096B017C0117FF4ACFF7FAF094F7F8BA
:100E7000F09445CFAFE4B1E083E015968C931597DD
:100E800086E116968C931697E3E9F0E0E4911796C5
:100E9000EC931797EFE7F0E0E4911896EC9318972E
:100EA00040E85EE360E070E01D964D935D936D93C6
:100EB0007C935097E1E6F1E01382128284E091E0A6
:100EC000918380838DE084838FEF85838CE086839C
:100ED00087E0878386E0808785E0818784E082875A
:100EE0001386148615861686178661E080E10C94B9
:100EF000C5035058BB27AA270E9491070C940409E8
:100F00000E94F60838F00E94FD0820F039F49F3F57
:100F100019F426F40C94F3080EF4E095E7FB0C9416
:100F2000ED08E92F0E94150958F3BA1762077307F5
:100F30008407950720F079F4A6F50C9437090EF490
:100F4000E0950B2EBA2FA02D0B01B90190010C01D9
:100F5000CA01A0011124FF27591B99F0593F50F4F1
:100F6000503E68F11A16F040A22F232F342F442749
:100F7000585FF3CF469537952795A795F040539541
:100F8000C9F77EF41F16BA0B620B730B840BBAF011
:100F90009150A1F0FF0FBB1F661F771F881FC2F77C
:100FA0000EC0BA0F621F731F841F48F48795779590
:100FB0006795B795F7959E3F08F0B0CF9395880F4A
:100FC00008F09927EE0F9795879508950E94C90814
:100FD00008F481E008950E94FF070C9404090E9420
:100FE000FD0858F00E94F60840F029F45F3F29F010
:100FF0000C94ED0851110C9438090C94F3080E94DC
:10100000150968F39923B1F3552391F3951B550BFB
:10101000BB27AA2762177307840738F09F5F5F4FCB
:10102000220F331F441FAA1FA9F335D00E2E3AF00A
:10103000E0E832D091505040E695001CCAF72BD022
:10104000FE2F29D0660F771F881FBB1F2617370773
:101050004807AB07B0E809F0BB0B802DBF01FF27A5
:1010600093585F4F3AF09E3F510578F00C94ED088D
:101070000C9438095F3FE4F3983ED4F38695779556
:101080006795B795F7959F5FC9F7880F911D96955E
:10109000879597F90895E1E0660F771F881FBB1FBA
:1010A000621773078407BA0720F0621B730B840B67
:1010B000BA0BEE1F88F7E09508950E941D0988F08D
:1010C0009F5798F0B92F9927B751B0F0E1F0660F0C
:1010D000771F881F991F1AF0BA95C9F714C0B1304D
:1010E00091F00E943709B1E008950C943709672FF9
:1010F000782F8827B85F39F0B93FCCF3869577957C
:101100006795B395D9F73EF4909580957095619564
:101110007F4F8F4F9F4F0895E89409C097FB3EF48F
:1011200090958095709561957F4F8F4F9F4F992334
:10113000A9F0F92F96E9BB279395F69587957795B2
:101140006795B795F111F8CFFAF4BB0F11F460FF72
:101150001BC06F5F7F4F8F4F9F4F16C0882311F0CA
:1011600096E911C0772321F09EE8872F762F05C0DE
:10117000662371F096E8862F70E060E02AF09A9579
:10118000660F771F881FDAF7880F9695879597F96E
:101190000895990F0008550FAA0BE0E8FEEF161608
:1011A0001706E807F907C0F012161306E407F5075B
:1011B00098F0621B730B840B950B39F40A2661F0CF
:1011C000232B242B252B21F408950A2609F4A14072
:1011D000A6958FEF811D811D089597F99F6780E87F
:1011E00070E060E008959FEF80EC089500240A9479
:1011F0001616170618060906089500240A941216F2
:101200001306140605060895092E0394000C11F424
:10121000882352F0BB0F40F4BF2B11F460FF04C0D1
:101220006F5F7F4F8F4F9F4F089557FD9058440F2A
:10123000551F59F05F3F71F04795880F97FB991F35
:1012400061F09F3F79F087950895121613061406F2
:10125000551FF2CF4695F1DF08C01616170618067F
:10126000991FF1CF86957105610508940895E8945A
:10127000BB2766277727CB0197F908950E94C908F5
:1012800008F48FEF08950E9456090C9404090E94F7
:10129000F60838F00E94FD0820F0952311F00C9418
:1012A000ED080C94F30811240C9438090E941509D8
:1012B00070F3959FC1F3950F50E0551F629FF001A9
:1012C000729FBB27F00DB11D639FAA27F00DB11DC2
:1012D000AA1F649F6627B00DA11D661F829F22274B
:1012E000B00DA11D621F739FB00DA11D621F839FD2
:1012F000A00D611D221F749F3327A00D611D231FA8
:10130000849F600D211D822F762F6A2F11249F57F5
:1013100050409AF0F1F088234AF0EE0FFF1FBB1FF8
:10132000661F771F881F91505040A9F79E3F5105B7
:1013300080F00C94ED080C9438095F3FE4F3983E7C
:10134000D4F3869577956795B795F795E7959F5F61
:10135000C1F7FE2B880F911D9695879597F90895F3
:101360000E94C908880B990B0895A1E21A2EAA1BA6
:10137000BB1BFD010DC0AA1FBB1FEE1FFF1FA21745
:10138000B307E407F50720F0A21BB30BE40BF50B42
:10139000661F771F881F991F1A9469F760957095CB
:1013A000809590959B01AC01BD01CF010895EE0F92
:0E13B000FF1F0590F491E02D0994F894FFCFF3
:1013BE00000000007904D200D502D4026E616E00E6
:1013CE00696E66006F76660054656D706572617445
:1013DE007572653A0048756D69646974793A0043AF
:1013EE000025004D494E2054656D703A004D415810
:0613FE002048756D3A0065
:00000001FF
